{
  "_format": "hh-sol-artifact-1",
  "contractName": "MockPriceFeed",
  "sourceName": "contracts/MockPriceFeed.sol",
  "abi": [
    {
      "inputs": [
        {
          "internalType": "int256",
          "name": "_price",
          "type": "int256"
        }
      ],
      "stateMutability": "nonpayable",
      "type": "constructor"
    },
    {
      "inputs": [],
      "name": "latestAnswer",
      "outputs": [
        {
          "internalType": "int256",
          "name": "",
          "type": "int256"
        }
      ],
      "stateMutability": "view",
      "type": "function"
    },
    {
      "inputs": [],
      "name": "price",
      "outputs": [
        {
          "internalType": "int256",
          "name": "",
          "type": "int256"
        }
      ],
      "stateMutability": "view",
      "type": "function"
    },
    {
      "inputs": [
        {
          "internalType": "int256",
          "name": "_price",
          "type": "int256"
        }
      ],
      "name": "setPrice",
      "outputs": [],
      "stateMutability": "nonpayable",
      "type": "function"
    }
  ],
  "bytecode": "0x60803461005057601f61013138819003918201601f19168301916001600160401b0383118484101761005557808492602094604052833981010312610050575160005560405160c5908161006c8239f35b600080fd5b634e487b7160e01b600052604160045260246000fdfe6080806040526004361015601257600080fd5b600090813560e01c90816350d25bcd14607357508063a035b1fe1460585763f7a3080614603e57600080fd5b346055576020366003190112605557600435815580f35b80fd5b50346055578060031936011260555760209054604051908152f35b905034608b5781600319360112608b57602091548152f35b5080fdfea2646970667358221220e6d9ce791d1af0c472f057ad43b25446035da63967aca0aab63d1abbb1c826d064736f6c63430008170033",
  "linkReferences": {},
  "deployedLinkReferences": {}
}