{
  "_format": "hh-sol-artifact-1",
  "contractName": "ExtensionMock",
  "sourceName": "contracts/mocks/ExtensionMock.sol",
  "abi": [
    {
      "inputs": [
        {
          "internalType": "bytes",
          "name": "extension",
          "type": "bytes"
        }
      ],
      "name": "getCustomData",
      "outputs": [
        {
          "internalType": "bytes",
          "name": "",
          "type": "bytes"
        }
      ],
      "stateMutability": "pure",
      "type": "function"
    }
  ],
  "bytecode": "0x608080604052346100165761010e908161001c8239f35b600080fdfe6080806040526004361015601257600080fd5b6000803560e01c63d0cfe3ab14602757600080fd5b3460a057602036600319011260a05767ffffffffffffffff600435818111609c5736602382011215609c578060040135918211609c573660248383010111609c57916077849260246040950160a3565b8092916020855281602086015285850137828201840152601f01601f19168101030190f35b8280fd5b80fd5b91906020811060cf57823560e01c9281846020011160ca578301602001929003601f190190565b600080fd5b5060009150819056fea2646970667358221220c0f1659be87a5a3e7d9482b64b4a33aa1cc19d9e35f7fc8a8477607a3701860364736f6c63430008170033",
  "linkReferences": {},
  "deployedLinkReferences": {}
}